:020000040800F2
:1000000050050020CD000008ED100008910F0008F9
:1000100000000000000000000000000000000000E0
:10002000000000000000000000000000F1100008C7
:100030000000000000000000EF100008F3100008AE
:10004000DF00000800000000DF000008DF000008FB
:10005000DF000008DF000008DF000008DF00000804
:1000600000000000DF000008DF000008DF000008DB
:10007000DF000008DF000008DF00000800000000CB
:10008000DF000008DF000008DF000008DF000008D4
:10009000DF000008DF000008DF000008DF000008C4
:1000A000DF000008DF000008DF000008DF000008B4
:1000B000DF000008DF0000080348854600F03CF838
:1000C00000480047D3160008500500200448804728
:1000D00004480047FEE7FEE7FEE7FEE7FEE7FEE72F
:1000E0005D110008B900000830B50B46014600203C
:1000F0002022012409E00D46D5409D4205D31D462E
:100100009540491B2546954040191546521E002D25
:10011000F1DC30BDD2B201E00270401C491EFBD2BE
:1001200070470022F6E710B513460A460446194602
:10013000FFF7F0FF204610BD064C0125064E05E0F6
:10014000E36807CC2B430C3C98471034B442F7D3F8
:10015000FFF7B6FF4C1700086C170008F0B5002336
:1001600088E001229A409446144022007ED04C68D8
:10017000022C01D0122C0CD1DC08A40027183C6AF8
:100180005D07ED0E0F26AE40B4430E69AE40264328
:100190003E6205685E000324B4400F79A543BF07A3
:1001A000BF0FB7402F4307604D68012D05D0022DCA
:1001B00003D0112D01D0122D0ED18568CF68A54333
:1001C000B7402F43876047686546AF430D79ED061A
:1001D000ED0F9D403D434560C568A5438C68B44024
:1001E0002C43C4604C68E40043D59D08244CAD000A
:1001F0002F193C6E9D07EE0E0F25B540AC4305252B
:100200002D07A84201D100250FE01E4DA84201D1C3
:1002100001250AE01C4DA84201D1022505E01B4D35
:10022000A84201D1032500E00525B5402543144C23
:100230003D66134D80352E684F689643FF0300D509
:1002400016432E606E684F689643BF0300D5164371
:100250006E6025684E689543F60200D5154325600B
:1002600065684E689543B60202D500E001E015438B
:1002700065605B1C0A681446DA4000D071E7F0BD87
:10028000001802400004005000080050000C00500C
:10029000002A01D0816170478162704701488068FF
:1002A000704700000000002070B5024640325378CD
:1002B000202B1CD11378012B19D001231370242477
:1002C0005470046825689D432560046825681E03F2
:1002D000B5432560046825680D4325600068016802
:1002E00019430160202050700020107070BD022062
:1002F00070BD70B5024640325378202B1BD1137865
:10030000012B18D0012414702423537003681D6836
:10031000A5431D6005682B680F263602B34309020A
:100320001943296000680168214301602020507052
:100330000020107070BD022070BD000070B5040078
:1003400006D02546403568780026002802D005E012
:10035000012070BD2E70204600F04AF824206870FD
:10036000206801684908490001600F21606809069A
:1003700088432168086121688A680120C00382439C
:100380008A60E1680129A16808D021229202114304
:1003900022689160E168022902D005E00143F7E795
:1003A00001212268C902516021684A680F4B1A4333
:1003B0004A602168CA688243CA606169206908434B
:1003C000A169090208432168C860216AE0690843FD
:1003D0002168086020680168012211430160666499
:1003E000202068702663AE70002070BD008000027F
:1003F00010B586B0044614216846FFF792FE1249F4
:10040000206888421ED1114C616B01200143616359
:10041000616B029001400591032100204902039085
:1004200000910620122104900191052069460007E1
:10043000FFF794FEE16B012040050143E163E16BAE
:100440000140059106B010BD00540040001002406C
:100450000248816842688918816070470000002066
:1004600010B5084800240168821511430160204638
:1004700000F00AF8002801D0012401E000F028F87B
:10048000204610BD0020024070B50F4E0024716858
:100490000546002915D07D20C000FFF725FE014646
:1004A0000A480068FFF720FE00F084FC002808D10D
:1004B000042D06D200222946401E00F01FF83560A8
:1004C00000E00124204670BD000000200C00002048
:1004D00008B5094801680122114301600068104015
:1004E000009005484038C26B01040A43C263C06BE8
:1004F0000840009008BD00004010024010B501F017
:10050000B7F810BD10B50F4C216803225202914379
:1005100001432160C11FFF39FA390ED10A48062173
:10052000006848430949FFF7DFFD401C02E000284E
:1005300005D0401E61694905F9D4002010BD032093
:1005400010BD0000007000400C00002040420F0071
:10055000F8B5044600680026524D800358D551482E
:1005600000274038C06BC00009D44E484038C26BE9
:1005700001040A43C263C06B0840012700904A4847
:100580000168821511430160FFF788FE009005E0C5
:10059000FFF784FE0099401A022825D842480068D7
:1005A000C005F5D5E8690321090208400FD0A1690B
:1005B00081420CD0E86903210902EA6988430121DC
:1005C00009040A43EA61EA698A43EA61E861C0070B
:1005D0000FD0FFF763FE009008E0FFF75FFE009981
:1005E000411A3248814201D9032609E0E8698007AF
:1005F000F3D5E869032109028843A1690843E8614A
:10060000002F05D027484038C16B02049143C163D5
:100610002078C00705D068696168800880000843B9
:1006200068612078800705D568690C218843A16836
:10063000084368612078400606D5686903210903EC
:100640008843E168084368612088400411D56869DF
:100650006169800080080843686101216069890739
:10066000884206D10F484038C16801221204114364
:10067000C1602088000512D5686903218903884379
:10068000216908436861012120698903884206D1F4
:1006900004484038C168012212041143C160304649
:1006A000F8BD0000401002400070004088130000B8
:1006B000F8B50F46060043D04D4D28684007400F5F
:1006C000B84213D22868C008C00038432860FFF73A
:1006D000E5FD044605E0FFF7E1FD011B45488142C9
:1006E00061D828684007400FB842F4D13068424CC6
:1006F00081070DD5400704D5A068072109030843E9
:10070000A060A0680F2109028843B1680843A06077
:100710003078C00732D0706801280AD002280BD088
:1007200000280FD03449403103280ED0C969890709
:1007300004E02168890301E021688901002906DBC2
:100740000120F8BD21684905F8E7096AEFE7A168CB
:10075000C908C9000143A160FFF7A0FD009006E0B1
:10076000FFF79CFD0099411A224881421BD8A068DE
:10077000382108407168C9008842F1D128684007D3
:10078000400FB84217D91A480168C908C90039434F
:100790000160FFF783FD054607E0FFF77FFD411B82
:1007A0001448814201D90320F8BD11480068400770
:1007B000400FB842F1D13078400706D5A068072134
:1007C00009038843F1680843A06000F031F8A1688C
:1007D0003C2289091140094A515CC906C90EC8402A
:1007E0000749086007480068FFF74EFEF8BD0000A3
:1007F000002002408813000000100240EC160008A0
:100800000C000020000000200648074900688968A5
:10081000064A4904490F8900515CC906C90EC840FF
:10082000704700000C000020001002402C17000848
:1008300010B5204CA068204A8006400F16D0A06852
:100840008006410F501001290FD0A1688906490F79
:10085000022912D0A0688006400F042823D0A06887
:100860008006400F032821D0002010BD2068012100
:100870008004400F8140104612E0E1688B07E16878
:100880009B0F4906490F491C032B00D01046FFF768
:100890002BFCE1684904490E4843E168490F491CB3
:1008A000FFF722FC10BD0120C00310BD7D20000217
:1008B00010BD0000001002400024F400F8B5040050
:1008C0007ED020783827C007EB4D002846D0A86896
:1008D000E96838408907890F102802D008280BD012
:1008E00001E0032908D001206268000482420AD195
:1008F00029680143296015E0286880032ED56068C7
:100900000028DDD02AE0052301211B0489049A4236
:100910002A6802D10A432A60EAE782432A602868EB
:1009200088432860606800280CD0FFF7B7FC0646B3
:1009300004E0FFF7B3FC801B642873D828688003A9
:10094000F7D50BE0FFF7AAFC064604E0FFF7A6FC8C
:10095000801B6428F1D828688003F7D420788007AA
:1009600069D5A868E96838408A070721920FC9024B
:10097000102802D0002813D001E0022A10D0E0682D
:10098000002846D0286888432169084328602868E1
:10099000FF21013108432860FFF780FC06462CE068
:1009A0002A68520502D5E268002A89D06A687F2346
:1009B0001B029A4363691B021A436A60002800E025
:1009C0008DE00ED128688843216908432860286893
:1009D00001218004400F8140A848FFF785FBA8490A
:1009E0000860A8480068FFF74FFD002877D122E093
:1009F000FFF754FC801B02289FD828684005F7D5D4
:100A000068687F21090288436169090208436860B8
:100A100011E02968FF20013081432960FFF73EFC87
:100A2000064605E098E0FFF739FC801B022884D8D1
:100A300028684005F7D42078934E00072ED5A86883
:100A40008006400F03280AD0A0690028306A16D01B
:100A5000012108433062FFF721FC07460BE0306AB2
:100A600080071BD5A06900289FD017E0FFF716FC70
:100A7000C01B022870D8306A8007F7D50EE0400806
:100A800040003062FFF70AFC074604E0FFF706FC6F
:100A9000C01B022860D8306A8007F7D4207840074E
:100AA0006CD5A86800278006400F042818D0E86B92
:100AB000C00008D4E96B012000070143E963E96B3A
:100AC00001400127009171480168C90519D40168E6
:100AD000821511430160FFF7E1FB00900DE083E018
:100AE000F06980074AD5A06800287DD046E0FFF76E
:100AF000D5FB0099401A02282ED864480068C0052A
:100B0000F5D5A168012910D004200529F16911D07B
:100B100049084900F161F1698143F161A068002849
:100B200016D0FFF7BBFB00900EE0F06901210843EF
:100B3000F061F3E70143F161F7E7FFF7AFFB0099DD
:100B4000411A534881426DD8F0698007F5D50EE00F
:100B5000FFF7A4FB009007E064E0FFF79FFB00991C
:100B6000411A4B4881425DD8F0698007F5D4002FC7
:100B700004D0E96B012000078143E963E0690028A4
:100B800077D0A9688906490F022951D00126360677
:100B9000022828680DD0B0432860E86880088000EB
:100BA000E860E8683B490840E860FFF777FB0446E7
:100BB0003AE0B0432860FFF771FB074604E0FFF717
:100BC0006DFBC01B02282DD828688001F7D4616A0C
:100BD000206AA26A0843E16A120211430843216BAA
:100BE0000843E9682C4A00E041E011400843E8600E
:100BF000286830432860E868012109070843E86055
:100C0000FFF74CFB044604E0FFF748FB001B0228FB
:100C100008D828688001F7D52BE0FFF73FFB001BC1
:100C2000022801D90320F8BD28688001F5D420E00E
:100C30000128F8D0E868226A8107890F914216D10D
:100C40007021626A0140914211D17F21A26A09029A
:100C50000140120291420AD11F214904E26A014077
:100C6000914204D1400F216B4007884201D00120FE
:100C7000F8BD0020F8BD0000001002400024F40080
:100C80000C000020000000204010024000700040D6
:100C900088130000FFFFFEEF8C80C11FF8B5040031
:100CA00007D0002625464035A662687F002802D07E
:100CB00005E00120F8BD2E77204600F04BF8022316
:100CC0006B77206801684022914301600721E0684A
:100CD0000902884201D9002201E0012212030F27F4
:100CE0003F02B84202D0884200D0A662276B002F94
:100CF00005D1884201D9236301E001202063A16866
:100D00006068636908432169194308430123A169A5
:100D10005B0219400843E1690843216A0843A16A5C
:100D2000084321680860616B606AA36908431B0C73
:100D30000427E1683B401943084321681043486099
:100D40002068C1697A029143C161266601206877F3
:100D50000020F8BD10B586B0044614216846FFF7A0
:100D6000E0F91149206888421BD1104802688114BB
:100D70000A4302600068084005900C484038426B06
:100D800002210A434263406B0191084005903920DB
:100D90000090002002900390049069460448FFF7F9
:100DA000DDF906B010BD00000030014040100240E7
:100DB00000040050094910B5401E884201D90120A5
:100DC00010BD074C60610321081F00F051FC00209A
:100DD000A06107202061002010BD0000FFFFFF0080
:100DE00000E000E030B5014660310A7F012A18D0EA
:100DF00001220A77242302468032144613600368D6
:100E00001A681D686D086D001D6001235B079A4319
:100E10000023436600680260202020600B7718469C
:100E200030BD022030BDF8B5054604466035287F48
:100E300001281DD001202877242220468030074633
:100E4000026020680668026852085200026020684A
:100E5000826807235B069A430A438260204600F0BB
:100E600085F9206806602020386000202877F8BDCA
:100E70000220F8BDF8B5054604466035287F0128F4
:100E80001CD00120287724222046803007460260AB
:100E90002068066802685208520002602068826872
:100EA000D200D2080A438260204600F05FF9206831
:100EB00006602020386000202877F8BD0220F8BDA9
:100EC00070B5040006D02046803005460068002832
:100ED00002D007E0012070BD00217C200155204692
:100EE00000F026F82420286020680168490849009D
:100EF0000160204600F002FA0128ECD0A06A002828
:100F000002D0204600F062F9206841680922D2022E
:100F100091434160206881682A2291438160206862
:100F20000168012211430160204600F0B5F970BD4F
:100F300010B586B0044614216846FFF7F2F811494F
:100F4000206888421CD110480268012189030A43A5
:100F500002600068084005900B484038426B02214F
:100F60000A434263406B019108400590C020009005
:100F7000002002900390049069460448FFF7EEF8C1
:100F800006B010BD0038014040100240000400507F
:100F9000FEE70000F0B587B014216846FFF7C1F8FE
:100FA0001B48416B012529434163416B2940059151
:100FB000426B02210A434263406B052708403F070A
:100FC0000590002213493846FFF762F901220821F3
:100FD0003846FFF75DF9FF260536002231460E48F8
:100FE000FFF756F90B480024083000900294694638
:100FF000019503943846FFF7B1F802946946064814
:10100000009601950394FFF7A9F807B0F0BD000022
:1010100000100240537900000004005010B50D4844
:101020000B4901600C49416000218160016141610F
:1010300081610122C161C2600162FFF77FF9002175
:101040000448FFF731F900210248FFF752F910BDBB
:1010500000540040100000201A06100010B50F4880
:101060000D490160FF2105314160002103228160AB
:1010700012020161C2600122416192048261016237
:1010800018224162C26181620722C26201630821A3
:101090004163FFF703FE10BD003001405C000020FB
:1010A00010B511480F490160E12149024160C904AE
:1010B00081600021C16001618161C16101620C2216
:1010C000416242618162FFF7FBFE00210648FFF7A3
:1010D000D1FE00210448FFF7A6FE0348FFF782FE79
:1010E00010BD000000380140C0000020704770476C
:1010F000704710B5FFF7ACF910BD10B598B03421AA
:101100006846FFF70EF800241494159416941C21D9
:101110000DA81794FFF705F801204002FFF7F2F938
:1011200002200090C0010390402005900494079491
:101130006846FFF7C3FB072014901594169400210E
:10114000179414A8FFF7B4FA41200D900E94109450
:101150000DA8FFF7FDF918B010BD000001200249ED
:10116000C00688607047000000ED00E0F0B513A1F4
:1011700006C985B00192009112A206CA039202919B
:101180000446416E4034002915D0006881688068AB
:1011900009014D0F400F02AE315C6F46385CC00054
:1011A000FEF7A2FF6085785D715DC000FEF79CFFD1
:1011B000208505B0F0BD01206085F9E7010101033C
:1011C00007010000080402040801010110B5018DA7
:1011D000C90707D001684A6801235B049A43C36AC0
:1011E0001A434A60018D890707D501684A680123BF
:1011F0001B049A43036B1A434A60018D490707D5C4
:1012000001684A6801239B049A43436B1A434A606E
:10121000018D090707D501684A680123DB039A435A
:10122000836B1A434A60018DC90607D5026891682D
:1012300001231B039943C36B19439160018D8906F8
:1012400007D501688A6801235B039A43036C1A433C
:101250008A60018D490612D503685A680121090583
:10126000446C8A4322435A60426C8A4207D1026826
:10127000516803235B059943836C19435160018DC9
:10128000090607D501684A680123DB04C06C9A434C
:1012900002434A6010BD0000FEB5054600268035B9
:1012A0000446AE60FEF7FAFF019020680068124F16
:1012B000000709D501210097002249052046019B1E
:1012C00000F0A2F900280DD12068006840070BD576
:1012D00001210097002289052046019B00F094F926
:1012E000002801D00320FEBD202028606860603403
:1012F00026770020FEBD0000FFFFFF01F8B5044681
:1013000080682169E2690843616900261143084346
:10131000616E014320680268B24B1A400A430260C2
:1013200021684868032212039043E2681043486032
:10133000A169206A226808439168AB4B19400143B8
:1013400091602068C16A626A090909011143C1629A
:10135000A64A2068A64990420CD148698007800FB0
:1013600023D0012804D002281FD003281CD111E06B
:1013700004201AE09F4A90420ED148690C2108408F
:1013800013D0042811D0082802D00C280CD101E079
:1013900002200AE0082008E09749884202D09749D5
:1013A000884201D1002000E010200122D203E1692F
:1013B000D511934B934F91426FD1002806D002284C
:1013C00035D004287AD0082869D17AE0FFF71CFAD2
:1013D00076E0012815D0022815D0032815D004285E
:1013E00015D0052815D0062815D0072815D00828AF
:1013F00015D0092815D00A2815D00B2814D001259E
:1014000012E0022510E004250EE006250CE0082578
:101410000AE00A2508E00C2506E0102504E0202556
:1014200002E0402500E08025294610461BE0606A66
:10143000002815D001282AD002282AD003282AD033
:1014400004282DD005282DD006282DD007282DD0F2
:1014500008282DD009282DD00A282DD00B2800D0FF
:10146000012529461846FEF73FFE616840004A08FC
:101470008018FEF739FE80B201461039B9420ED805
:101480006049491C01400007400F08437FE00225E6
:10149000E7E70425E5E70625E3E716E00EE08CE044
:1014A0000825DEE70A25DCE70C25DAE71025D8E772
:1014B0002025D6E74025D4E78025D2E7FFF7B8F905
:1014C0000246606A00289AD083E7002806D00228E6
:1014D00035D0042874D0082879D174E0FFF794F946
:1014E00070E0012815D0022815D0032815D0042853
:1014F00015D0052815D0062815D0072815D008289E
:1015000015D0092815D00A2815D00B2814D001258C
:1015100012E0022510E004250EE006250CE0082567
:101520000AE00A2508E00C2506E0102504E0202545
:1015300002E0402500E08025294610461BE0606A55
:10154000002815D0012825D0022825D0032825D031
:10155000042825D0052825D0062825D0072825D001
:10156000082825D0092825D00A2827D00B2800D004
:10157000012529461846FEF7B7FD61684A0880181C
:10158000FEF7B2FD80B201461039B9421FD821687A
:10159000C8601DE00225ECE70425EAE70625E8E738
:1015A0000825E6E70A25E4E70C25E2E71025E0E751
:1015B0002025DEE74025DCE702E008E08025D8E7CB
:1015C000FFF736F90246606A0028A0D089E70126B5
:1015D000204601214030418501850020E0662067DA
:1015E0003046F8BDF369FFCFFFF4FF11003801402A
:1015F000401002400044004000480040004C0040C1
:101600000024F400EFFF0000FFB581B017460E463E
:1016100004460A9D09E0681C07D0FEF73FFE0499C6
:10162000401AA8420CD8002D0AD02068C169304663
:1016300088431AD00020B842EDD0002005B0F0BD9C
:1016400020680168FF22A13291430160206881680F
:1016500049084900816020212046803001604160B6
:101660000020603420770320E8E70120E3E7000052
:101670008307FF22DB0E9A408907090E9940002854
:1016800008DB830809489B001B181868904308432F
:10169000186070470007000F0838830804489B0053
:1016A0001B18D86990430843D861704700E400E0F4
:1016B00000ED00E002E008C8121F08C1002AFAD1BC
:1016C00070477047002001E001C1121F002AFBD1C2
:1016D0007047FEF7C5FEFFF710FDFFF75BFCFFF755
:1016E0009DFCFFF7BBFCFFF7DBFCFEE70000000002
:1016F00000000000000000000000000000000000EA
:1017000000000000000000000000000001000000D8
:1017100002000000030000000400000006000000BA
:1017200007000000080000000900000000000000A1
:1017300000000000000000000000000001000000A8
:101740000200000003000000040000006C17000805
:101750000000002010000000B41600087C170008EC
:101760001000002040050000C4160008040000001E
:0C17700001000000000000000024F40054
:04000005080000B936
:00000001FF
